:020000020000FC
:100000000FEF0DBF08E00EBF00EF0AB951D070E34B
:1000100050E380E0359B70E3359B50E399B19C70D1
:10002000883031F0843049F0803061F08C3079F0E4
:100030009C3091F09030E1F026C09C30C9F09030B7
:1000400059F021C0983041F0943091F01CC09830A4
:1000500079F0943009F017C07395543321F07A3356
:1000600091F47A505395763309F00DC07A950BC010
:100070007A957F3209F007C0503319F05A9579E329
:1000800002C0739500C0509305027093060217E0FA
:1000900002D0892FBFCF00E85ED041D05CD0F2E023
:1000A000EE2701913FD05CD01A951030D1F708951A
:1000B000549A559A569A579A209A219A51D050D0CC
:1000C0004FD04ED04DD04CD000E337D049D035D0B2
:1000D00047D000E232D044D000E221D041D008E243
:1000E0001ED03ED008E01BD03BD001E018D038D065
:1000F00006E015D035D00CE012D0089504FF5C98CE
:1001000004FD5C9A05FF5D9805FD5D9A06FF5E980B
:1001100006FD5E9A07FF5F9807FD5F9A089528988D
:1001200004D00895289A01D00895299AE7DF2998E4
:100130000295299AE3DF299808952898DFDF299A04
:1001400029980027089531E43A95F1F70895FBDFE7
:10015000FADFF9DF089544E6F6DF4A95E9F70895F6
:0A01600040E0F5DF4A95E9F7089545
:00000001FF
