:020000020000FC
:100000000FEF0DBF08E00EBF002707B900EF0AB9D8
:100010002DD050E360E370E380E3E894499B50E324
:10002000499B60E3359904C026F05395689401C05C
:10003000E8945A3311F4582F6395563319F4643306
:1000400009F45A95609300025093010212E001D026
:10005000E5CF00E85ED041D05CD0F2E0EE27019120
:100060003FD05CD01A951030D1F70895549A559A24
:10007000569A579A209A219A51D050D04FD04ED0AC
:100080004DD04CD000E337D049D035D047D000E236
:1000900032D044D000E221D041D008E21ED03ED080
:1000A00008E01BD03BD001E018D038D006E015D0D6
:1000B00035D00CE012D0089504FF5C9804FD5C9AE2
:1000C00005FF5D9805FD5D9A06FF5E9806FD5E9A48
:1000D00007FF5F9807FD5F9A0895289804D0089558
:1000E000289A01D00895299AE7DF29980295299A3C
:1000F000E3DF299808952898DFDF299A29980027B7
:10010000089531E43A95F1F70895FBDFFADFF9DF5E
:10011000089544E6F6DF4A95E9F7089540E0F5DFF3
:060120004A95E9F708957D
:00000001FF
