:020000020000FC
:1000000000E0702F802F05E0D02E04E5E02E0FEFEA
:100010000DBF08E00EBF002707B907E800937A007C
:1000200000E200937C00ABD000917A000064009362
:100030007A0000917A00202F20712031D1F71091A1
:100040007A0048E0142710937A006091790000E369
:10005000302E502F402E502E9927772788270FEFCC
:10006000902EA02E2DD0062D0130A1F0603079F019
:1000700072D093959D3259F06F371AF467173AF0A2
:10008000F5CF7F370AF4F2CF67170AF0EFCF662774
:10009000692F01C06DE26A5028F053955A3329F058
:1000A0008894F9CF665F362E03C043945A50F3CF3D
:1000B000350C509300023092010212E053D0B4CFBD
:1000C000662E792C8818661C881C871818F4870CF3
:1000D000889401C00894661C881C871818F4870C43
:1000E000889401C00894661C881C871818F4870C33
:1000F000889401C00894661C881C871818F4870C23
:10010000889401C00894661C881C871818F4870C12
:10011000889401C00894661C881C871818F4870C02
:10012000889401C00894661C881C871818F4870CF2
:10013000889401C00894661C881C871818F4870CE2
:10014000889401C00894661C0895C82C1DE21C9D6B
:10015000912DA02D08958E0D87FF02C073958F7786
:100160007D0D089500E85ED041D05CD0F2E0EE272E
:1001700001913FD05CD01A951030D1F70895549A70
:10018000559A569A579A209A219A51D050D04FD0CA
:100190004ED04DD04CD000E337D049D035D047D0E9
:1001A00000E232D044D000E221D041D008E21ED09B
:1001B0003ED008E01BD03BD001E018D038D006E09C
:1001C00015D035D00CE012D0089504FF5C9804FDE2
:1001D0005C9A05FF5D9805FD5D9A06FF5E9806FD39
:1001E0005E9A07FF5F9807FD5F9A0895289804D0EC
:1001F0000895289A01D00895299AE7DF2998029551
:10020000299AE3DF299808952898DFDF299A299809
:100210000027089531E43A95F1F70895FBDFFADFFE
:10022000F9DF089544E6F6DF4A95E9F7089540E0DE
:08023000F5DF4A95E9F7089596
:00000001FF
